{
  "contractName": "MyToken",
  "abi": [
    {
      "inputs": [],
      "stateMutability": "nonpayable",
      "type": "constructor"
    },
    {
      "anonymous": false,
      "inputs": [
        {
          "indexed": true,
          "internalType": "address",
          "name": "owner",
          "type": "address"
        },
        {
          "indexed": true,
          "internalType": "address",
          "name": "approved",
          "type": "address"
        },
        {
          "indexed": true,
          "internalType": "uint256",
          "name": "tokenId",
          "type": "uint256"
        }
      ],
      "name": "Approval",
      "type": "event"
    },
    {
      "anonymous": false,
      "inputs": [
        {
          "indexed": true,
          "internalType": "address",
          "name": "owner",
          "type": "address"
        },
        {
          "indexed": true,
          "internalType": "address",
          "name": "operator",
          "type": "address"
        },
        {
          "indexed": false,
          "internalType": "bool",
          "name": "approved",
          "type": "bool"
        }
      ],
      "name": "ApprovalForAll",
      "type": "event"
    },
    {
      "anonymous": false,
      "inputs": [
        {
          "indexed": true,
          "internalType": "address",
          "name": "from",
          "type": "address"
        },
        {
          "indexed": true,
          "internalType": "address",
          "name": "to",
          "type": "address"
        },
        {
          "indexed": true,
          "internalType": "uint256",
          "name": "tokenId",
          "type": "uint256"
        }
      ],
      "name": "Transfer",
      "type": "event"
    },
    {
      "inputs": [],
      "name": "URI",
      "outputs": [
        {
          "internalType": "string",
          "name": "",
          "type": "string"
        }
      ],
      "stateMutability": "view",
      "type": "function"
    },
    {
      "inputs": [
        {
          "internalType": "address",
          "name": "to",
          "type": "address"
        },
        {
          "internalType": "uint256",
          "name": "tokenId",
          "type": "uint256"
        }
      ],
      "name": "approve",
      "outputs": [],
      "stateMutability": "nonpayable",
      "type": "function"
    },
    {
      "inputs": [
        {
          "internalType": "address",
          "name": "owner",
          "type": "address"
        }
      ],
      "name": "balanceOf",
      "outputs": [
        {
          "internalType": "uint256",
          "name": "",
          "type": "uint256"
        }
      ],
      "stateMutability": "view",
      "type": "function"
    },
    {
      "inputs": [
        {
          "internalType": "uint256",
          "name": "tokenId",
          "type": "uint256"
        }
      ],
      "name": "getApproved",
      "outputs": [
        {
          "internalType": "address",
          "name": "",
          "type": "address"
        }
      ],
      "stateMutability": "view",
      "type": "function"
    },
    {
      "inputs": [
        {
          "internalType": "address",
          "name": "owner",
          "type": "address"
        },
        {
          "internalType": "address",
          "name": "operator",
          "type": "address"
        }
      ],
      "name": "isApprovedForAll",
      "outputs": [
        {
          "internalType": "bool",
          "name": "",
          "type": "bool"
        }
      ],
      "stateMutability": "view",
      "type": "function"
    },
    {
      "inputs": [],
      "name": "mintPrice",
      "outputs": [
        {
          "internalType": "uint256",
          "name": "",
          "type": "uint256"
        }
      ],
      "stateMutability": "view",
      "type": "function"
    },
    {
      "inputs": [],
      "name": "name",
      "outputs": [
        {
          "internalType": "string",
          "name": "",
          "type": "string"
        }
      ],
      "stateMutability": "view",
      "type": "function"
    },
    {
      "inputs": [
        {
          "internalType": "uint256",
          "name": "tokenId",
          "type": "uint256"
        }
      ],
      "name": "ownerOf",
      "outputs": [
        {
          "internalType": "address",
          "name": "",
          "type": "address"
        }
      ],
      "stateMutability": "view",
      "type": "function"
    },
    {
      "inputs": [
        {
          "internalType": "address",
          "name": "from",
          "type": "address"
        },
        {
          "internalType": "address",
          "name": "to",
          "type": "address"
        },
        {
          "internalType": "uint256",
          "name": "tokenId",
          "type": "uint256"
        }
      ],
      "name": "safeTransferFrom",
      "outputs": [],
      "stateMutability": "nonpayable",
      "type": "function"
    },
    {
      "inputs": [
        {
          "internalType": "address",
          "name": "from",
          "type": "address"
        },
        {
          "internalType": "address",
          "name": "to",
          "type": "address"
        },
        {
          "internalType": "uint256",
          "name": "tokenId",
          "type": "uint256"
        },
        {
          "internalType": "bytes",
          "name": "data",
          "type": "bytes"
        }
      ],
      "name": "safeTransferFrom",
      "outputs": [],
      "stateMutability": "nonpayable",
      "type": "function"
    },
    {
      "inputs": [
        {
          "internalType": "address",
          "name": "operator",
          "type": "address"
        },
        {
          "internalType": "bool",
          "name": "approved",
          "type": "bool"
        }
      ],
      "name": "setApprovalForAll",
      "outputs": [],
      "stateMutability": "nonpayable",
      "type": "function"
    },
    {
      "inputs": [
        {
          "internalType": "bytes4",
          "name": "interfaceId",
          "type": "bytes4"
        }
      ],
      "name": "supportsInterface",
      "outputs": [
        {
          "internalType": "bool",
          "name": "",
          "type": "bool"
        }
      ],
      "stateMutability": "view",
      "type": "function"
    },
    {
      "inputs": [],
      "name": "symbol",
      "outputs": [
        {
          "internalType": "string",
          "name": "",
          "type": "string"
        }
      ],
      "stateMutability": "view",
      "type": "function"
    },
    {
      "inputs": [
        {
          "internalType": "uint256",
          "name": "tokenId",
          "type": "uint256"
        }
      ],
      "name": "tokenURI",
      "outputs": [
        {
          "internalType": "string",
          "name": "",
          "type": "string"
        }
      ],
      "stateMutability": "view",
      "type": "function"
    },
    {
      "inputs": [],
      "name": "totalMints",
      "outputs": [
        {
          "internalType": "uint256",
          "name": "",
          "type": "uint256"
        }
      ],
      "stateMutability": "view",
      "type": "function"
    },
    {
      "inputs": [
        {
          "internalType": "address",
          "name": "from",
          "type": "address"
        },
        {
          "internalType": "address",
          "name": "to",
          "type": "address"
        },
        {
          "internalType": "uint256",
          "name": "tokenId",
          "type": "uint256"
        }
      ],
      "name": "transferFrom",
      "outputs": [],
      "stateMutability": "nonpayable",
      "type": "function"
    },
    {
      "inputs": [
        {
          "internalType": "address",
          "name": "",
          "type": "address"
        }
      ],
      "name": "walletMints",
      "outputs": [
        {
          "internalType": "uint256",
          "name": "",
          "type": "uint256"
        }
      ],
      "stateMutability": "view",
      "type": "function"
    },
    {
      "inputs": [],
      "name": "mintToken",
      "outputs": [],
      "stateMutability": "payable",
      "type": "function"
    }
  ],
  "bytecode": "0x6080604052600160065573960c7a125db7ed5cad05eb6b8df96c998f4bfbe3600760006101000a81548173ffffffffffffffffffffffffffffffffffffffff021916908373ffffffffffffffffffffffffffffffffffffffff160217905550670de0b6b3a764000060085560405180608001604052806060815260200162002b9960609139600990805190602001906200009b92919062000150565b50348015620000a957600080fd5b506040518060400160405280600781526020017f4d79546f6b656e000000000000000000000000000000000000000000000000008152506040518060400160405280600381526020017f4d544b000000000000000000000000000000000000000000000000000000000081525081600090805190602001906200012e92919062000150565b5080600190805190602001906200014792919062000150565b50505062000265565b8280546200015e9062000200565b90600052602060002090601f016020900481019282620001825760008555620001ce565b82601f106200019d57805160ff1916838001178555620001ce565b82800160010185558215620001ce579182015b82811115620001cd578251825591602001919060010190620001b0565b5b509050620001dd9190620001e1565b5090565b5b80821115620001fc576000816000905550600101620001e2565b5090565b600060028204905060018216806200021957607f821691505b6020821081141562000230576200022f62000236565b5b50919050565b7f4e487b7100000000000000000000000000000000000000000000000000000000600052602260045260246000fd5b61292480620002756000396000f3fe6080604052600436106101095760003560e01c80636352211e11610095578063a22cb46511610064578063a22cb4651461035e578063b88d4fde14610387578063c87b56dd146103b0578063e985e9c5146103ed578063f0293fd31461042a57610109565b80636352211e1461028e5780636817c76c146102cb57806370a08231146102f657806395d89b411461033357610109565b80631141d7de116100dc5780631141d7de146101dc5780631f21bfbf146102075780632004ffd91461023257806323b872dd1461023c57806342842e0e1461026557610109565b806301ffc9a71461010e57806306fdde031461014b578063081812fc14610176578063095ea7b3146101b3575b600080fd5b34801561011a57600080fd5b5061013560048036038101906101309190611db1565b610467565b604051610142919061212b565b60405180910390f35b34801561015757600080fd5b50610160610549565b60405161016d9190612146565b60405180910390f35b34801561018257600080fd5b5061019d60048036038101906101989190611e03565b6105db565b6040516101aa91906120c4565b60405180910390f35b3480156101bf57600080fd5b506101da60048036038101906101d59190611d75565b610621565b005b3480156101e857600080fd5b506101f1610739565b6040516101fe9190612146565b60405180910390f35b34801561021357600080fd5b5061021c6107c7565b60405161022991906122e8565b60405180910390f35b61023a6107cd565b005b34801561024857600080fd5b50610263600480360381019061025e9190611c6f565b610887565b005b34801561027157600080fd5b5061028c60048036038101906102879190611c6f565b6108e7565b005b34801561029a57600080fd5b506102b560048036038101906102b09190611e03565b610907565b6040516102c291906120c4565b60405180910390f35b3480156102d757600080fd5b506102e061098e565b6040516102ed91906122e8565b60405180910390f35b34801561030257600080fd5b5061031d60048036038101906103189190611c0a565b610994565b60405161032a91906122e8565b60405180910390f35b34801561033f57600080fd5b50610348610a4c565b6040516103559190612146565b60405180910390f35b34801561036a57600080fd5b5061038560048036038101906103809190611d39565b610ade565b005b34801561039357600080fd5b506103ae60048036038101906103a99190611cbe565b610af4565b005b3480156103bc57600080fd5b506103d760048036038101906103d29190611e03565b610b56565b6040516103e49190612146565b60405180910390f35b3480156103f957600080fd5b50610414600480360381019061040f9190611c33565b610bbe565b604051610421919061212b565b60405180910390f35b34801561043657600080fd5b50610451600480360381019061044c9190611c0a565b610c52565b60405161045e91906122e8565b60405180910390f35b60007f80ac58cd000000000000000000000000000000000000000000000000000000007bffffffffffffffffffffffffffffffffffffffffffffffffffffffff1916827bffffffffffffffffffffffffffffffffffffffffffffffffffffffff1916148061053257507f5b5e139f000000000000000000000000000000000000000000000000000000007bffffffffffffffffffffffffffffffffffffffffffffffffffffffff1916827bffffffffffffffffffffffffffffffffffffffffffffffffffffffff1916145b80610542575061054182610c6a565b5b9050919050565b60606000805461055890612452565b80601f016020809104026020016040519081016040528092919081815260200182805461058490612452565b80156105d15780601f106105a6576101008083540402835291602001916105d1565b820191906000526020600020905b8154815290600101906020018083116105b457829003601f168201915b5050505050905090565b60006105e682610cd4565b6004600083815260200190815260200160002060009054906101000a900473ffffffffffffffffffffffffffffffffffffffff169050919050565b600061062c82610907565b90508073ffffffffffffffffffffffffffffffffffffffff168373ffffffffffffffffffffffffffffffffffffffff16141561069d576040517f08c379a0000000000000000000000000000000000000000000000000000000008152600401610694906122a8565b60405180910390fd5b8073ffffffffffffffffffffffffffffffffffffffff166106bc610d1f565b73ffffffffffffffffffffffffffffffffffffffff1614806106eb57506106ea816106e5610d1f565b610bbe565b5b61072a576040517f08c379a0000000000000000000000000000000000000000000000000000000008152600401610721906122c8565b60405180910390fd5b6107348383610d27565b505050565b6009805461074690612452565b80601f016020809104026020016040519081016040528092919081815260200182805461077290612452565b80156107bf5780601f10610794576101008083540402835291602001916107bf565b820191906000526020600020905b8154815290600101906020018083116107a257829003601f168201915b505050505081565b60065481565b3460085414610811576040517f08c379a000000000000000000000000000000000000000000000000000000000815260040161080890612268565b60405180910390fd5b61081a33610de0565b600760009054906101000a900473ffffffffffffffffffffffffffffffffffffffff1673ffffffffffffffffffffffffffffffffffffffff166108fc6008549081150290604051600060405180830381858888f19350505050158015610884573d6000803e3d6000fd5b50565b610898610892610d1f565b82610e0d565b6108d7576040517f08c379a00000000000000000000000000000000000000000000000000000000081526004016108ce90612168565b60405180910390fd5b6108e2838383610ea2565b505050565b61090283838360405180602001604052806000815250610af4565b505050565b6000806109138361119c565b9050600073ffffffffffffffffffffffffffffffffffffffff168173ffffffffffffffffffffffffffffffffffffffff161415610985576040517f08c379a000000000000000000000000000000000000000000000000000000000815260040161097c90612288565b60405180910390fd5b80915050919050565b60085481565b60008073ffffffffffffffffffffffffffffffffffffffff168273ffffffffffffffffffffffffffffffffffffffff161415610a05576040517f08c379a00000000000000000000000000000000000000000000000000000000081526004016109fc90612228565b60405180910390fd5b600360008373ffffffffffffffffffffffffffffffffffffffff1673ffffffffffffffffffffffffffffffffffffffff168152602001908152602001600020549050919050565b606060018054610a5b90612452565b80601f0160208091040260200160405190810160405280929190818152602001828054610a8790612452565b8015610ad45780601f10610aa957610100808354040283529160200191610ad4565b820191906000526020600020905b815481529060010190602001808311610ab757829003601f168201915b5050505050905090565b610af0610ae9610d1f565b83836111d9565b5050565b610b05610aff610d1f565b83610e0d565b610b44576040517f08c379a0000000000000000000000000000000000000000000000000000000008152600401610b3b90612168565b60405180910390fd5b610b5084848484611346565b50505050565b6060610b6182610cd4565b6000610b6b6113a2565b90506000815111610b8b5760405180602001604052806000815250610bb6565b80610b95846113b9565b604051602001610ba69291906120a0565b6040516020818303038152906040525b915050919050565b6000600560008473ffffffffffffffffffffffffffffffffffffffff1673ffffffffffffffffffffffffffffffffffffffff16815260200190815260200160002060008373ffffffffffffffffffffffffffffffffffffffff1673ffffffffffffffffffffffffffffffffffffffff16815260200190815260200160002060009054906101000a900460ff16905092915050565b600a6020528060005260406000206000915090505481565b60007f01ffc9a7000000000000000000000000000000000000000000000000000000007bffffffffffffffffffffffffffffffffffffffffffffffffffffffff1916827bffffffffffffffffffffffffffffffffffffffffffffffffffffffff1916149050919050565b610cdd816114dd565b610d1c576040517f08c379a0000000000000000000000000000000000000000000000000000000008152600401610d1390612288565b60405180910390fd5b50565b600033905090565b816004600083815260200190815260200160002060006101000a81548173ffffffffffffffffffffffffffffffffffffffff021916908373ffffffffffffffffffffffffffffffffffffffff160217905550808273ffffffffffffffffffffffffffffffffffffffff16610d9a83610907565b73ffffffffffffffffffffffffffffffffffffffff167f8c5be1e5ebec7d5bd14f71427d1e84f3dd0314c0f7b2291e5b200ac8c7c3b92560405160405180910390a45050565b6000600654905060066000815480929190610dfa906124b5565b9190505550610e09828261151e565b5050565b600080610e1983610907565b90508073ffffffffffffffffffffffffffffffffffffffff168473ffffffffffffffffffffffffffffffffffffffff161480610e5b5750610e5a8185610bbe565b5b80610e9957508373ffffffffffffffffffffffffffffffffffffffff16610e81846105db565b73ffffffffffffffffffffffffffffffffffffffff16145b91505092915050565b8273ffffffffffffffffffffffffffffffffffffffff16610ec282610907565b73ffffffffffffffffffffffffffffffffffffffff1614610f18576040517f08c379a0000000000000000000000000000000000000000000000000000000008152600401610f0f906121a8565b60405180910390fd5b600073ffffffffffffffffffffffffffffffffffffffff168273ffffffffffffffffffffffffffffffffffffffff161415610f88576040517f08c379a0000000000000000000000000000000000000000000000000000000008152600401610f7f906121e8565b60405180910390fd5b610f95838383600161173c565b8273ffffffffffffffffffffffffffffffffffffffff16610fb582610907565b73ffffffffffffffffffffffffffffffffffffffff161461100b576040517f08c379a0000000000000000000000000000000000000000000000000000000008152600401611002906121a8565b60405180910390fd5b6004600082815260200190815260200160002060006101000a81549073ffffffffffffffffffffffffffffffffffffffff02191690556001600360008573ffffffffffffffffffffffffffffffffffffffff1673ffffffffffffffffffffffffffffffffffffffff168152602001908152602001600020600082825403925050819055506001600360008473ffffffffffffffffffffffffffffffffffffffff1673ffffffffffffffffffffffffffffffffffffffff16815260200190815260200160002060008282540192505081905550816002600083815260200190815260200160002060006101000a81548173ffffffffffffffffffffffffffffffffffffffff021916908373ffffffffffffffffffffffffffffffffffffffff160217905550808273ffffffffffffffffffffffffffffffffffffffff168473ffffffffffffffffffffffffffffffffffffffff167fddf252ad1be2c89b69c2b068fc378daa952ba7f163c4a11628f55a4df523b3ef60405160405180910390a46111978383836001611742565b505050565b60006002600083815260200190815260200160002060009054906101000a900473ffffffffffffffffffffffffffffffffffffffff169050919050565b8173ffffffffffffffffffffffffffffffffffffffff168373ffffffffffffffffffffffffffffffffffffffff161415611248576040517f08c379a000000000000000000000000000000000000000000000000000000000815260040161123f90612208565b60405180910390fd5b80600560008573ffffffffffffffffffffffffffffffffffffffff1673ffffffffffffffffffffffffffffffffffffffff16815260200190815260200160002060008473ffffffffffffffffffffffffffffffffffffffff1673ffffffffffffffffffffffffffffffffffffffff16815260200190815260200160002060006101000a81548160ff0219169083151502179055508173ffffffffffffffffffffffffffffffffffffffff168373ffffffffffffffffffffffffffffffffffffffff167f17307eab39ab6107e8899845ad3d59bd9653f200f220920489ca2b5937696c3183604051611339919061212b565b60405180910390a3505050565b611351848484610ea2565b61135d84848484611748565b61139c576040517f08c379a000000000000000000000000000000000000000000000000000000000815260040161139390612188565b60405180910390fd5b50505050565b606060405180602001604052806000815250905090565b6060600060016113c8846118df565b01905060008167ffffffffffffffff81111561140d577f4e487b7100000000000000000000000000000000000000000000000000000000600052604160045260246000fd5b6040519080825280601f01601f19166020018201604052801561143f5781602001600182028036833780820191505090505b509050600082602001820190505b6001156114d2578080600190039150507f3031323334353637383961626364656600000000000000000000000000000000600a86061a8153600a85816114bc577f4e487b7100000000000000000000000000000000000000000000000000000000600052601260045260246000fd5b04945060008514156114cd576114d2565b61144d565b819350505050919050565b60008073ffffffffffffffffffffffffffffffffffffffff166114ff8361119c565b73ffffffffffffffffffffffffffffffffffffffff1614159050919050565b600073ffffffffffffffffffffffffffffffffffffffff168273ffffffffffffffffffffffffffffffffffffffff16141561158e576040517f08c379a000000000000000000000000000000000000000000000000000000000815260040161158590612248565b60405180910390fd5b611597816114dd565b156115d7576040517f08c379a00000000000000000000000000000000000000000000000000000000081526004016115ce906121c8565b60405180910390fd5b6115e560008383600161173c565b6115ee816114dd565b1561162e576040517f08c379a0000000000000000000000000000000000000000000000000000000008152600401611625906121c8565b60405180910390fd5b6001600360008473ffffffffffffffffffffffffffffffffffffffff1673ffffffffffffffffffffffffffffffffffffffff16815260200190815260200160002060008282540192505081905550816002600083815260200190815260200160002060006101000a81548173ffffffffffffffffffffffffffffffffffffffff021916908373ffffffffffffffffffffffffffffffffffffffff160217905550808273ffffffffffffffffffffffffffffffffffffffff16600073ffffffffffffffffffffffffffffffffffffffff167fddf252ad1be2c89b69c2b068fc378daa952ba7f163c4a11628f55a4df523b3ef60405160405180910390a4611738600083836001611742565b5050565b50505050565b50505050565b60006117698473ffffffffffffffffffffffffffffffffffffffff16611b16565b156118d2578373ffffffffffffffffffffffffffffffffffffffff1663150b7a02611792610d1f565b8786866040518563ffffffff1660e01b81526004016117b494939291906120df565b602060405180830381600087803b1580156117ce57600080fd5b505af19250505080156117ff57506040513d601f19601f820116820180604052508101906117fc9190611dda565b60015b611882573d806000811461182f576040519150601f19603f3d011682016040523d82523d6000602084013e611834565b606091505b5060008151141561187a576040517f08c379a000000000000000000000000000000000000000000000000000000000815260040161187190612188565b60405180910390fd5b805181602001fd5b63150b7a0260e01b7bffffffffffffffffffffffffffffffffffffffffffffffffffffffff1916817bffffffffffffffffffffffffffffffffffffffffffffffffffffffff1916149150506118d7565b600190505b949350505050565b600080600090507a184f03e93ff9f4daa797ed6e38ed64bf6a1f0100000000000000008310611963577a184f03e93ff9f4daa797ed6e38ed64bf6a1f0100000000000000008381611959577f4e487b7100000000000000000000000000000000000000000000000000000000600052601260045260246000fd5b0492506040810190505b6d04ee2d6d415b85acef810000000083106119c6576d04ee2d6d415b85acef810000000083816119bc577f4e487b7100000000000000000000000000000000000000000000000000000000600052601260045260246000fd5b0492506020810190505b662386f26fc100008310611a1b57662386f26fc100008381611a11577f4e487b7100000000000000000000000000000000000000000000000000000000600052601260045260246000fd5b0492506010810190505b6305f5e1008310611a6a576305f5e1008381611a60577f4e487b7100000000000000000000000000000000000000000000000000000000600052601260045260246000fd5b0492506008810190505b6127108310611ab5576127108381611aab577f4e487b7100000000000000000000000000000000000000000000000000000000600052601260045260246000fd5b0492506004810190505b60648310611afe5760648381611af4577f4e487b7100000000000000000000000000000000000000000000000000000000600052601260045260246000fd5b0492506002810190505b600a8310611b0d576001810190505b80915050919050565b6000808273ffffffffffffffffffffffffffffffffffffffff163b119050919050565b6000611b4c611b4784612328565b612303565b905082815260208101848484011115611b6457600080fd5b611b6f848285612410565b509392505050565b600081359050611b8681612892565b92915050565b600081359050611b9b816128a9565b92915050565b600081359050611bb0816128c0565b92915050565b600081519050611bc5816128c0565b92915050565b600082601f830112611bdc57600080fd5b8135611bec848260208601611b39565b91505092915050565b600081359050611c04816128d7565b92915050565b600060208284031215611c1c57600080fd5b6000611c2a84828501611b77565b91505092915050565b60008060408385031215611c4657600080fd5b6000611c5485828601611b77565b9250506020611c6585828601611b77565b9150509250929050565b600080600060608486031215611c8457600080fd5b6000611c9286828701611b77565b9350506020611ca386828701611b77565b9250506040611cb486828701611bf5565b9150509250925092565b60008060008060808587031215611cd457600080fd5b6000611ce287828801611b77565b9450506020611cf387828801611b77565b9350506040611d0487828801611bf5565b925050606085013567ffffffffffffffff811115611d2157600080fd5b611d2d87828801611bcb565b91505092959194509250565b60008060408385031215611d4c57600080fd5b6000611d5a85828601611b77565b9250506020611d6b85828601611b8c565b9150509250929050565b60008060408385031215611d8857600080fd5b6000611d9685828601611b77565b9250506020611da785828601611bf5565b9150509250929050565b600060208284031215611dc357600080fd5b6000611dd184828501611ba1565b91505092915050565b600060208284031215611dec57600080fd5b6000611dfa84828501611bb6565b91505092915050565b600060208284031215611e1557600080fd5b6000611e2384828501611bf5565b91505092915050565b611e358161239c565b82525050565b611e44816123ae565b82525050565b6000611e5582612359565b611e5f818561236f565b9350611e6f81856020860161241f565b611e788161258b565b840191505092915050565b6000611e8e82612364565b611e988185612380565b9350611ea881856020860161241f565b611eb18161258b565b840191505092915050565b6000611ec782612364565b611ed18185612391565b9350611ee181856020860161241f565b80840191505092915050565b6000611efa602d83612380565b9150611f058261259c565b604082019050919050565b6000611f1d603283612380565b9150611f28826125eb565b604082019050919050565b6000611f40602583612380565b9150611f4b8261263a565b604082019050919050565b6000611f63601c83612380565b9150611f6e82612689565b602082019050919050565b6000611f86602483612380565b9150611f91826126b2565b604082019050919050565b6000611fa9601983612380565b9150611fb482612701565b602082019050919050565b6000611fcc602983612380565b9150611fd78261272a565b604082019050919050565b6000611fef602083612380565b9150611ffa82612779565b602082019050919050565b6000612012601183612380565b915061201d826127a2565b602082019050919050565b6000612035601883612380565b9150612040826127cb565b602082019050919050565b6000612058602183612380565b9150612063826127f4565b604082019050919050565b600061207b603d83612380565b915061208682612843565b604082019050919050565b61209a81612406565b82525050565b60006120ac8285611ebc565b91506120b88284611ebc565b91508190509392505050565b60006020820190506120d96000830184611e2c565b92915050565b60006080820190506120f46000830187611e2c565b6121016020830186611e2c565b61210e6040830185612091565b81810360608301526121208184611e4a565b905095945050505050565b60006020820190506121406000830184611e3b565b92915050565b600060208201905081810360008301526121608184611e83565b905092915050565b6000602082019050818103600083015261218181611eed565b9050919050565b600060208201905081810360008301526121a181611f10565b9050919050565b600060208201905081810360008301526121c181611f33565b9050919050565b600060208201905081810360008301526121e181611f56565b9050919050565b6000602082019050818103600083015261220181611f79565b9050919050565b6000602082019050818103600083015261222181611f9c565b9050919050565b6000602082019050818103600083015261224181611fbf565b9050919050565b6000602082019050818103600083015261226181611fe2565b9050919050565b6000602082019050818103600083015261228181612005565b9050919050565b600060208201905081810360008301526122a181612028565b9050919050565b600060208201905081810360008301526122c18161204b565b9050919050565b600060208201905081810360008301526122e18161206e565b9050919050565b60006020820190506122fd6000830184612091565b92915050565b600061230d61231e565b90506123198282612484565b919050565b6000604051905090565b600067ffffffffffffffff8211156123435761234261255c565b5b61234c8261258b565b9050602081019050919050565b600081519050919050565b600081519050919050565b600082825260208201905092915050565b600082825260208201905092915050565b600081905092915050565b60006123a7826123e6565b9050919050565b60008115159050919050565b60007fffffffff0000000000000000000000000000000000000000000000000000000082169050919050565b600073ffffffffffffffffffffffffffffffffffffffff82169050919050565b6000819050919050565b82818337600083830152505050565b60005b8381101561243d578082015181840152602081019050612422565b8381111561244c576000848401525b50505050565b6000600282049050600182168061246a57607f821691505b6020821081141561247e5761247d61252d565b5b50919050565b61248d8261258b565b810181811067ffffffffffffffff821117156124ac576124ab61255c565b5b80604052505050565b60006124c082612406565b91507fffffffffffffffffffffffffffffffffffffffffffffffffffffffffffffffff8214156124f3576124f26124fe565b5b600182019050919050565b7f4e487b7100000000000000000000000000000000000000000000000000000000600052601160045260246000fd5b7f4e487b7100000000000000000000000000000000000000000000000000000000600052602260045260246000fd5b7f4e487b7100000000000000000000000000000000000000000000000000000000600052604160045260246000fd5b6000601f19601f8301169050919050565b7f4552433732313a2063616c6c6572206973206e6f7420746f6b656e206f776e6560008201527f72206f7220617070726f76656400000000000000000000000000000000000000602082015250565b7f4552433732313a207472616e7366657220746f206e6f6e20455243373231526560008201527f63656976657220696d706c656d656e7465720000000000000000000000000000602082015250565b7f4552433732313a207472616e736665722066726f6d20696e636f72726563742060008201527f6f776e6572000000000000000000000000000000000000000000000000000000602082015250565b7f4552433732313a20746f6b656e20616c7265616479206d696e74656400000000600082015250565b7f4552433732313a207472616e7366657220746f20746865207a65726f2061646460008201527f7265737300000000000000000000000000000000000000000000000000000000602082015250565b7f4552433732313a20617070726f766520746f2063616c6c657200000000000000600082015250565b7f4552433732313a2061646472657373207a65726f206973206e6f74206120766160008201527f6c6964206f776e65720000000000000000000000000000000000000000000000602082015250565b7f4552433732313a206d696e7420746f20746865207a65726f2061646472657373600082015250565b7f77726f6e6720616d6f756e742073656e74000000000000000000000000000000600082015250565b7f4552433732313a20696e76616c696420746f6b656e2049440000000000000000600082015250565b7f4552433732313a20617070726f76616c20746f2063757272656e74206f776e6560008201527f7200000000000000000000000000000000000000000000000000000000000000602082015250565b7f4552433732313a20617070726f76652063616c6c6572206973206e6f7420746f60008201527f6b656e206f776e6572206f7220617070726f76656420666f7220616c6c000000602082015250565b61289b8161239c565b81146128a657600080fd5b50565b6128b2816123ae565b81146128bd57600080fd5b50565b6128c9816123ba565b81146128d457600080fd5b50565b6128e081612406565b81146128eb57600080fd5b5056fea2646970667358221220115a6ad94fd9bfa0937a3bbc66741b7f1c4b28b504785140229edfb81f02f05d64736f6c6343000804003368747470733a2f2f6261667962656966716d677966793462793367706d7335736476336674336b6e63636d6a737178667171757578656d6f687477666d3779376e77612e697066732e647765622e6c696e6b2f6d657461646174612e6a736f6e",
  "immutableReferences": {},
  "source": "pragma solidity ^0.8.4;\r\n\r\nimport \"@openzeppelin/contracts/token/ERC721/ERC721.sol\";\r\n\r\ncontract MyToken is ERC721 {\r\n    uint256 public totalMints = 1;\r\n    address  payable receiver=payable(0x960C7A125DB7ED5cAD05eB6B8Df96c998f4BFBE3);\r\n    uint256 public mintPrice = 1 ether;\r\n    string public URI = \"https://bafybeifqmgyfy4by3gpms5sdv3ft3knccmjsqxfqquuxemohtwfm7y7nwa.ipfs.dweb.link/metadata.json\";\r\n    mapping(address => uint256) public walletMints;\r\n\r\n    constructor() ERC721(\"MyToken\", \"MTK\") {}\r\n\r\n    function safeMint(address to) internal {\r\n        uint256 tokenId = totalMints;\r\n        totalMints++;\r\n\r\n        _mint(to, tokenId);\r\n    }\r\n\r\n    function mintToken() public payable {\r\n        require(mintPrice == msg.value, \"wrong amount sent\");\r\n\r\n        safeMint(msg.sender);\r\n        receiver.transfer(mintPrice);\r\n    }\r\n    }\r\n\r\n\r\n",
  "sourcePath": "C:\\Users\\gento\\Desktop\\Hackbattle\\hackbattle23\\contracts\\contractNFT.sol",
  "compiler": {
    "name": "solc",
    "version": "0.8.4+commit.c7e474f2.Emscripten.clang"
  },
  "schemaVersion": "3.4.13",
  "updatedAt": "2023-09-20T13:16:55.629Z",
  "devdoc": {
    "kind": "dev",
    "methods": {
      "approve(address,uint256)": {
        "details": "See {IERC721-approve}."
      },
      "balanceOf(address)": {
        "details": "See {IERC721-balanceOf}."
      },
      "getApproved(uint256)": {
        "details": "See {IERC721-getApproved}."
      },
      "isApprovedForAll(address,address)": {
        "details": "See {IERC721-isApprovedForAll}."
      },
      "name()": {
        "details": "See {IERC721Metadata-name}."
      },
      "ownerOf(uint256)": {
        "details": "See {IERC721-ownerOf}."
      },
      "safeTransferFrom(address,address,uint256)": {
        "details": "See {IERC721-safeTransferFrom}."
      },
      "safeTransferFrom(address,address,uint256,bytes)": {
        "details": "See {IERC721-safeTransferFrom}."
      },
      "setApprovalForAll(address,bool)": {
        "details": "See {IERC721-setApprovalForAll}."
      },
      "supportsInterface(bytes4)": {
        "details": "See {IERC165-supportsInterface}."
      },
      "symbol()": {
        "details": "See {IERC721Metadata-symbol}."
      },
      "tokenURI(uint256)": {
        "details": "See {IERC721Metadata-tokenURI}."
      },
      "transferFrom(address,address,uint256)": {
        "details": "See {IERC721-transferFrom}."
      }
    },
    "version": 1
  },
  "userdoc": {
    "kind": "user",
    "methods": {},
    "version": 1
  }
}