{
  "contractName": "MyToken",
  "abi": [
    {
      "inputs": [],
      "stateMutability": "nonpayable",
      "type": "constructor"
    },
    {
      "anonymous": false,
      "inputs": [
        {
          "indexed": true,
          "internalType": "address",
          "name": "owner",
          "type": "address"
        },
        {
          "indexed": true,
          "internalType": "address",
          "name": "approved",
          "type": "address"
        },
        {
          "indexed": true,
          "internalType": "uint256",
          "name": "tokenId",
          "type": "uint256"
        }
      ],
      "name": "Approval",
      "type": "event"
    },
    {
      "anonymous": false,
      "inputs": [
        {
          "indexed": true,
          "internalType": "address",
          "name": "owner",
          "type": "address"
        },
        {
          "indexed": true,
          "internalType": "address",
          "name": "operator",
          "type": "address"
        },
        {
          "indexed": false,
          "internalType": "bool",
          "name": "approved",
          "type": "bool"
        }
      ],
      "name": "ApprovalForAll",
      "type": "event"
    },
    {
      "anonymous": false,
      "inputs": [
        {
          "indexed": true,
          "internalType": "address",
          "name": "from",
          "type": "address"
        },
        {
          "indexed": true,
          "internalType": "address",
          "name": "to",
          "type": "address"
        },
        {
          "indexed": true,
          "internalType": "uint256",
          "name": "tokenId",
          "type": "uint256"
        }
      ],
      "name": "Transfer",
      "type": "event"
    },
    {
      "inputs": [],
      "name": "URI",
      "outputs": [
        {
          "internalType": "string",
          "name": "",
          "type": "string"
        }
      ],
      "stateMutability": "view",
      "type": "function"
    },
    {
      "inputs": [
        {
          "internalType": "address",
          "name": "to",
          "type": "address"
        },
        {
          "internalType": "uint256",
          "name": "tokenId",
          "type": "uint256"
        }
      ],
      "name": "approve",
      "outputs": [],
      "stateMutability": "nonpayable",
      "type": "function"
    },
    {
      "inputs": [
        {
          "internalType": "address",
          "name": "owner",
          "type": "address"
        }
      ],
      "name": "balanceOf",
      "outputs": [
        {
          "internalType": "uint256",
          "name": "",
          "type": "uint256"
        }
      ],
      "stateMutability": "view",
      "type": "function"
    },
    {
      "inputs": [
        {
          "internalType": "uint256",
          "name": "tokenId",
          "type": "uint256"
        }
      ],
      "name": "getApproved",
      "outputs": [
        {
          "internalType": "address",
          "name": "",
          "type": "address"
        }
      ],
      "stateMutability": "view",
      "type": "function"
    },
    {
      "inputs": [
        {
          "internalType": "address",
          "name": "owner",
          "type": "address"
        },
        {
          "internalType": "address",
          "name": "operator",
          "type": "address"
        }
      ],
      "name": "isApprovedForAll",
      "outputs": [
        {
          "internalType": "bool",
          "name": "",
          "type": "bool"
        }
      ],
      "stateMutability": "view",
      "type": "function"
    },
    {
      "inputs": [],
      "name": "mintPrice",
      "outputs": [
        {
          "internalType": "uint256",
          "name": "",
          "type": "uint256"
        }
      ],
      "stateMutability": "view",
      "type": "function"
    },
    {
      "inputs": [],
      "name": "name",
      "outputs": [
        {
          "internalType": "string",
          "name": "",
          "type": "string"
        }
      ],
      "stateMutability": "view",
      "type": "function"
    },
    {
      "inputs": [
        {
          "internalType": "uint256",
          "name": "tokenId",
          "type": "uint256"
        }
      ],
      "name": "ownerOf",
      "outputs": [
        {
          "internalType": "address",
          "name": "",
          "type": "address"
        }
      ],
      "stateMutability": "view",
      "type": "function"
    },
    {
      "inputs": [
        {
          "internalType": "address",
          "name": "from",
          "type": "address"
        },
        {
          "internalType": "address",
          "name": "to",
          "type": "address"
        },
        {
          "internalType": "uint256",
          "name": "tokenId",
          "type": "uint256"
        }
      ],
      "name": "safeTransferFrom",
      "outputs": [],
      "stateMutability": "nonpayable",
      "type": "function"
    },
    {
      "inputs": [
        {
          "internalType": "address",
          "name": "from",
          "type": "address"
        },
        {
          "internalType": "address",
          "name": "to",
          "type": "address"
        },
        {
          "internalType": "uint256",
          "name": "tokenId",
          "type": "uint256"
        },
        {
          "internalType": "bytes",
          "name": "data",
          "type": "bytes"
        }
      ],
      "name": "safeTransferFrom",
      "outputs": [],
      "stateMutability": "nonpayable",
      "type": "function"
    },
    {
      "inputs": [
        {
          "internalType": "address",
          "name": "operator",
          "type": "address"
        },
        {
          "internalType": "bool",
          "name": "approved",
          "type": "bool"
        }
      ],
      "name": "setApprovalForAll",
      "outputs": [],
      "stateMutability": "nonpayable",
      "type": "function"
    },
    {
      "inputs": [
        {
          "internalType": "bytes4",
          "name": "interfaceId",
          "type": "bytes4"
        }
      ],
      "name": "supportsInterface",
      "outputs": [
        {
          "internalType": "bool",
          "name": "",
          "type": "bool"
        }
      ],
      "stateMutability": "view",
      "type": "function"
    },
    {
      "inputs": [],
      "name": "symbol",
      "outputs": [
        {
          "internalType": "string",
          "name": "",
          "type": "string"
        }
      ],
      "stateMutability": "view",
      "type": "function"
    },
    {
      "inputs": [
        {
          "internalType": "uint256",
          "name": "tokenId",
          "type": "uint256"
        }
      ],
      "name": "tokenURI",
      "outputs": [
        {
          "internalType": "string",
          "name": "",
          "type": "string"
        }
      ],
      "stateMutability": "view",
      "type": "function"
    },
    {
      "inputs": [],
      "name": "totalMints",
      "outputs": [
        {
          "internalType": "uint256",
          "name": "",
          "type": "uint256"
        }
      ],
      "stateMutability": "view",
      "type": "function"
    },
    {
      "inputs": [
        {
          "internalType": "address",
          "name": "from",
          "type": "address"
        },
        {
          "internalType": "address",
          "name": "to",
          "type": "address"
        },
        {
          "internalType": "uint256",
          "name": "tokenId",
          "type": "uint256"
        }
      ],
      "name": "transferFrom",
      "outputs": [],
      "stateMutability": "nonpayable",
      "type": "function"
    },
    {
      "inputs": [
        {
          "internalType": "address",
          "name": "",
          "type": "address"
        }
      ],
      "name": "walletMints",
      "outputs": [
        {
          "internalType": "uint256",
          "name": "",
          "type": "uint256"
        }
      ],
      "stateMutability": "view",
      "type": "function"
    },
    {
      "inputs": [],
      "name": "mintToken",
      "outputs": [],
      "stateMutability": "payable",
      "type": "function"
    }
  ],
  "bytecode": "0x6080604052600160065573960c7a125db7ed5cad05eb6b8df96c998f4bfbe3600760006101000a81548173ffffffffffffffffffffffffffffffffffffffff021916908373ffffffffffffffffffffffffffffffffffffffff160217905550670de0b6b3a764000060085560405180608001604052806060815260200162002ce86060913960099081620000949190620003b5565b50348015620000a257600080fd5b506040518060400160405280600781526020017f4d79546f6b656e000000000000000000000000000000000000000000000000008152506040518060400160405280600381526020017f4d544b00000000000000000000000000000000000000000000000000000000008152508160009081620001209190620003b5565b508060019081620001329190620003b5565b5050506200049c565b600081519050919050565b7f4e487b7100000000000000000000000000000000000000000000000000000000600052604160045260246000fd5b7f4e487b7100000000000000000000000000000000000000000000000000000000600052602260045260246000fd5b60006002820490506001821680620001bd57607f821691505b602082108103620001d357620001d262000175565b5b50919050565b60008190508160005260206000209050919050565b60006020601f8301049050919050565b600082821b905092915050565b6000600883026200023d7fffffffffffffffffffffffffffffffffffffffffffffffffffffffffffffffff82620001fe565b620002498683620001fe565b95508019841693508086168417925050509392505050565b6000819050919050565b6000819050919050565b600062000296620002906200028a8462000261565b6200026b565b62000261565b9050919050565b6000819050919050565b620002b28362000275565b620002ca620002c1826200029d565b8484546200020b565b825550505050565b600090565b620002e1620002d2565b620002ee818484620002a7565b505050565b5b8181101562000316576200030a600082620002d7565b600181019050620002f4565b5050565b601f82111562000365576200032f81620001d9565b6200033a84620001ee565b810160208510156200034a578190505b620003626200035985620001ee565b830182620002f3565b50505b505050565b600082821c905092915050565b60006200038a600019846008026200036a565b1980831691505092915050565b6000620003a5838362000377565b9150826002028217905092915050565b620003c0826200013b565b67ffffffffffffffff811115620003dc57620003db62000146565b5b620003e88254620001a4565b620003f58282856200031a565b600060209050601f8311600181146200042d576000841562000418578287015190505b62000424858262000397565b86555062000494565b601f1984166200043d86620001d9565b60005b82811015620004675784890151825560018201915060208501945060208101905062000440565b8683101562000487578489015162000483601f89168262000377565b8355505b6001600288020188555050505b505050505050565b61283c80620004ac6000396000f3fe6080604052600436106101095760003560e01c80636352211e11610095578063a22cb46511610064578063a22cb4651461035e578063b88d4fde14610387578063c87b56dd146103b0578063e985e9c5146103ed578063f0293fd31461042a57610109565b80636352211e1461028e5780636817c76c146102cb57806370a08231146102f657806395d89b411461033357610109565b80631141d7de116100dc5780631141d7de146101dc5780631f21bfbf146102075780632004ffd91461023257806323b872dd1461023c57806342842e0e1461026557610109565b806301ffc9a71461010e57806306fdde031461014b578063081812fc14610176578063095ea7b3146101b3575b600080fd5b34801561011a57600080fd5b5061013560048036038101906101309190611a55565b610467565b6040516101429190611a9d565b60405180910390f35b34801561015757600080fd5b50610160610549565b60405161016d9190611b48565b60405180910390f35b34801561018257600080fd5b5061019d60048036038101906101989190611ba0565b6105db565b6040516101aa9190611c0e565b60405180910390f35b3480156101bf57600080fd5b506101da60048036038101906101d59190611c55565b610621565b005b3480156101e857600080fd5b506101f1610738565b6040516101fe9190611b48565b60405180910390f35b34801561021357600080fd5b5061021c6107c6565b6040516102299190611ca4565b60405180910390f35b61023a6107cc565b005b34801561024857600080fd5b50610263600480360381019061025e9190611cbf565b610886565b005b34801561027157600080fd5b5061028c60048036038101906102879190611cbf565b6108e6565b005b34801561029a57600080fd5b506102b560048036038101906102b09190611ba0565b610906565b6040516102c29190611c0e565b60405180910390f35b3480156102d757600080fd5b506102e061098c565b6040516102ed9190611ca4565b60405180910390f35b34801561030257600080fd5b5061031d60048036038101906103189190611d12565b610992565b60405161032a9190611ca4565b60405180910390f35b34801561033f57600080fd5b50610348610a49565b6040516103559190611b48565b60405180910390f35b34801561036a57600080fd5b5061038560048036038101906103809190611d6b565b610adb565b005b34801561039357600080fd5b506103ae60048036038101906103a99190611ee0565b610af1565b005b3480156103bc57600080fd5b506103d760048036038101906103d29190611ba0565b610b53565b6040516103e49190611b48565b60405180910390f35b3480156103f957600080fd5b50610414600480360381019061040f9190611f63565b610bbb565b6040516104219190611a9d565b60405180910390f35b34801561043657600080fd5b50610451600480360381019061044c9190611d12565b610c4f565b60405161045e9190611ca4565b60405180910390f35b60007f80ac58cd000000000000000000000000000000000000000000000000000000007bffffffffffffffffffffffffffffffffffffffffffffffffffffffff1916827bffffffffffffffffffffffffffffffffffffffffffffffffffffffff1916148061053257507f5b5e139f000000000000000000000000000000000000000000000000000000007bffffffffffffffffffffffffffffffffffffffffffffffffffffffff1916827bffffffffffffffffffffffffffffffffffffffffffffffffffffffff1916145b80610542575061054182610c67565b5b9050919050565b60606000805461055890611fd2565b80601f016020809104026020016040519081016040528092919081815260200182805461058490611fd2565b80156105d15780601f106105a6576101008083540402835291602001916105d1565b820191906000526020600020905b8154815290600101906020018083116105b457829003601f168201915b5050505050905090565b60006105e682610cd1565b6004600083815260200190815260200160002060009054906101000a900473ffffffffffffffffffffffffffffffffffffffff169050919050565b600061062c82610906565b90508073ffffffffffffffffffffffffffffffffffffffff168373ffffffffffffffffffffffffffffffffffffffff160361069c576040517f08c379a000000000000000000000000000000000000000000000000000000000815260040161069390612075565b60405180910390fd5b8073ffffffffffffffffffffffffffffffffffffffff166106bb610d1c565b73ffffffffffffffffffffffffffffffffffffffff1614806106ea57506106e9816106e4610d1c565b610bbb565b5b610729576040517f08c379a000000000000000000000000000000000000000000000000000000000815260040161072090612107565b60405180910390fd5b6107338383610d24565b505050565b6009805461074590611fd2565b80601f016020809104026020016040519081016040528092919081815260200182805461077190611fd2565b80156107be5780601f10610793576101008083540402835291602001916107be565b820191906000526020600020905b8154815290600101906020018083116107a157829003601f168201915b505050505081565b60065481565b3460085414610810576040517f08c379a000000000000000000000000000000000000000000000000000000000815260040161080790612173565b60405180910390fd5b61081933610ddd565b600760009054906101000a900473ffffffffffffffffffffffffffffffffffffffff1673ffffffffffffffffffffffffffffffffffffffff166108fc6008549081150290604051600060405180830381858888f19350505050158015610883573d6000803e3d6000fd5b50565b610897610891610d1c565b82610e0a565b6108d6576040517f08c379a00000000000000000000000000000000000000000000000000000000081526004016108cd90612205565b60405180910390fd5b6108e1838383610e9f565b505050565b61090183838360405180602001604052806000815250610af1565b505050565b60008061091283611198565b9050600073ffffffffffffffffffffffffffffffffffffffff168173ffffffffffffffffffffffffffffffffffffffff1603610983576040517f08c379a000000000000000000000000000000000000000000000000000000000815260040161097a90612271565b60405180910390fd5b80915050919050565b60085481565b60008073ffffffffffffffffffffffffffffffffffffffff168273ffffffffffffffffffffffffffffffffffffffff1603610a02576040517f08c379a00000000000000000000000000000000000000000000000000000000081526004016109f990612303565b60405180910390fd5b600360008373ffffffffffffffffffffffffffffffffffffffff1673ffffffffffffffffffffffffffffffffffffffff168152602001908152602001600020549050919050565b606060018054610a5890611fd2565b80601f0160208091040260200160405190810160405280929190818152602001828054610a8490611fd2565b8015610ad15780601f10610aa657610100808354040283529160200191610ad1565b820191906000526020600020905b815481529060010190602001808311610ab457829003601f168201915b5050505050905090565b610aed610ae6610d1c565b83836111d5565b5050565b610b02610afc610d1c565b83610e0a565b610b41576040517f08c379a0000000000000000000000000000000000000000000000000000000008152600401610b3890612205565b60405180910390fd5b610b4d84848484611341565b50505050565b6060610b5e82610cd1565b6000610b6861139d565b90506000815111610b885760405180602001604052806000815250610bb3565b80610b92846113b4565b604051602001610ba392919061235f565b6040516020818303038152906040525b915050919050565b6000600560008473ffffffffffffffffffffffffffffffffffffffff1673ffffffffffffffffffffffffffffffffffffffff16815260200190815260200160002060008373ffffffffffffffffffffffffffffffffffffffff1673ffffffffffffffffffffffffffffffffffffffff16815260200190815260200160002060009054906101000a900460ff16905092915050565b600a6020528060005260406000206000915090505481565b60007f01ffc9a7000000000000000000000000000000000000000000000000000000007bffffffffffffffffffffffffffffffffffffffffffffffffffffffff1916827bffffffffffffffffffffffffffffffffffffffffffffffffffffffff1916149050919050565b610cda81611482565b610d19576040517f08c379a0000000000000000000000000000000000000000000000000000000008152600401610d1090612271565b60405180910390fd5b50565b600033905090565b816004600083815260200190815260200160002060006101000a81548173ffffffffffffffffffffffffffffffffffffffff021916908373ffffffffffffffffffffffffffffffffffffffff160217905550808273ffffffffffffffffffffffffffffffffffffffff16610d9783610906565b73ffffffffffffffffffffffffffffffffffffffff167f8c5be1e5ebec7d5bd14f71427d1e84f3dd0314c0f7b2291e5b200ac8c7c3b92560405160405180910390a45050565b6000600654905060066000815480929190610df7906123b2565b9190505550610e0682826114c3565b5050565b600080610e1683610906565b90508073ffffffffffffffffffffffffffffffffffffffff168473ffffffffffffffffffffffffffffffffffffffff161480610e585750610e578185610bbb565b5b80610e9657508373ffffffffffffffffffffffffffffffffffffffff16610e7e846105db565b73ffffffffffffffffffffffffffffffffffffffff16145b91505092915050565b8273ffffffffffffffffffffffffffffffffffffffff16610ebf82610906565b73ffffffffffffffffffffffffffffffffffffffff1614610f15576040517f08c379a0000000000000000000000000000000000000000000000000000000008152600401610f0c9061246c565b60405180910390fd5b600073ffffffffffffffffffffffffffffffffffffffff168273ffffffffffffffffffffffffffffffffffffffff1603610f84576040517f08c379a0000000000000000000000000000000000000000000000000000000008152600401610f7b906124fe565b60405180910390fd5b610f9183838360016116e0565b8273ffffffffffffffffffffffffffffffffffffffff16610fb182610906565b73ffffffffffffffffffffffffffffffffffffffff1614611007576040517f08c379a0000000000000000000000000000000000000000000000000000000008152600401610ffe9061246c565b60405180910390fd5b6004600082815260200190815260200160002060006101000a81549073ffffffffffffffffffffffffffffffffffffffff02191690556001600360008573ffffffffffffffffffffffffffffffffffffffff1673ffffffffffffffffffffffffffffffffffffffff168152602001908152602001600020600082825403925050819055506001600360008473ffffffffffffffffffffffffffffffffffffffff1673ffffffffffffffffffffffffffffffffffffffff16815260200190815260200160002060008282540192505081905550816002600083815260200190815260200160002060006101000a81548173ffffffffffffffffffffffffffffffffffffffff021916908373ffffffffffffffffffffffffffffffffffffffff160217905550808273ffffffffffffffffffffffffffffffffffffffff168473ffffffffffffffffffffffffffffffffffffffff167fddf252ad1be2c89b69c2b068fc378daa952ba7f163c4a11628f55a4df523b3ef60405160405180910390a461119383838360016116e6565b505050565b60006002600083815260200190815260200160002060009054906101000a900473ffffffffffffffffffffffffffffffffffffffff169050919050565b8173ffffffffffffffffffffffffffffffffffffffff168373ffffffffffffffffffffffffffffffffffffffff1603611243576040517f08c379a000000000000000000000000000000000000000000000000000000000815260040161123a9061256a565b60405180910390fd5b80600560008573ffffffffffffffffffffffffffffffffffffffff1673ffffffffffffffffffffffffffffffffffffffff16815260200190815260200160002060008473ffffffffffffffffffffffffffffffffffffffff1673ffffffffffffffffffffffffffffffffffffffff16815260200190815260200160002060006101000a81548160ff0219169083151502179055508173ffffffffffffffffffffffffffffffffffffffff168373ffffffffffffffffffffffffffffffffffffffff167f17307eab39ab6107e8899845ad3d59bd9653f200f220920489ca2b5937696c31836040516113349190611a9d565b60405180910390a3505050565b61134c848484610e9f565b611358848484846116ec565b611397576040517f08c379a000000000000000000000000000000000000000000000000000000000815260040161138e906125fc565b60405180910390fd5b50505050565b606060405180602001604052806000815250905090565b6060600060016113c384611873565b01905060008167ffffffffffffffff8111156113e2576113e1611db5565b5b6040519080825280601f01601f1916602001820160405280156114145781602001600182028036833780820191505090505b509050600082602001820190505b600115611477578080600190039150507f3031323334353637383961626364656600000000000000000000000000000000600a86061a8153600a858161146b5761146a61261c565b5b04945060008503611422575b819350505050919050565b60008073ffffffffffffffffffffffffffffffffffffffff166114a483611198565b73ffffffffffffffffffffffffffffffffffffffff1614159050919050565b600073ffffffffffffffffffffffffffffffffffffffff168273ffffffffffffffffffffffffffffffffffffffff1603611532576040517f08c379a000000000000000000000000000000000000000000000000000000000815260040161152990612697565b60405180910390fd5b61153b81611482565b1561157b576040517f08c379a000000000000000000000000000000000000000000000000000000000815260040161157290612703565b60405180910390fd5b6115896000838360016116e0565b61159281611482565b156115d2576040517f08c379a00000000000000000000000000000000000000000000000000000000081526004016115c990612703565b60405180910390fd5b6001600360008473ffffffffffffffffffffffffffffffffffffffff1673ffffffffffffffffffffffffffffffffffffffff16815260200190815260200160002060008282540192505081905550816002600083815260200190815260200160002060006101000a81548173ffffffffffffffffffffffffffffffffffffffff021916908373ffffffffffffffffffffffffffffffffffffffff160217905550808273ffffffffffffffffffffffffffffffffffffffff16600073ffffffffffffffffffffffffffffffffffffffff167fddf252ad1be2c89b69c2b068fc378daa952ba7f163c4a11628f55a4df523b3ef60405160405180910390a46116dc6000838360016116e6565b5050565b50505050565b50505050565b600061170d8473ffffffffffffffffffffffffffffffffffffffff166119c6565b15611866578373ffffffffffffffffffffffffffffffffffffffff1663150b7a02611736610d1c565b8786866040518563ffffffff1660e01b81526004016117589493929190612778565b6020604051808303816000875af192505050801561179457506040513d601f19601f8201168201806040525081019061179191906127d9565b60015b611816573d80600081146117c4576040519150601f19603f3d011682016040523d82523d6000602084013e6117c9565b606091505b50600081510361180e576040517f08c379a0000000000000000000000000000000000000000000000000000000008152600401611805906125fc565b60405180910390fd5b805181602001fd5b63150b7a0260e01b7bffffffffffffffffffffffffffffffffffffffffffffffffffffffff1916817bffffffffffffffffffffffffffffffffffffffffffffffffffffffff19161491505061186b565b600190505b949350505050565b600080600090507a184f03e93ff9f4daa797ed6e38ed64bf6a1f01000000000000000083106118d1577a184f03e93ff9f4daa797ed6e38ed64bf6a1f01000000000000000083816118c7576118c661261c565b5b0492506040810190505b6d04ee2d6d415b85acef8100000000831061190e576d04ee2d6d415b85acef810000000083816119045761190361261c565b5b0492506020810190505b662386f26fc10000831061193d57662386f26fc1000083816119335761193261261c565b5b0492506010810190505b6305f5e1008310611966576305f5e100838161195c5761195b61261c565b5b0492506008810190505b612710831061198b5761271083816119815761198061261c565b5b0492506004810190505b606483106119ae57606483816119a4576119a361261c565b5b0492506002810190505b600a83106119bd576001810190505b80915050919050565b6000808273ffffffffffffffffffffffffffffffffffffffff163b119050919050565b6000604051905090565b600080fd5b600080fd5b60007fffffffff0000000000000000000000000000000000000000000000000000000082169050919050565b611a32816119fd565b8114611a3d57600080fd5b50565b600081359050611a4f81611a29565b92915050565b600060208284031215611a6b57611a6a6119f3565b5b6000611a7984828501611a40565b91505092915050565b60008115159050919050565b611a9781611a82565b82525050565b6000602082019050611ab26000830184611a8e565b92915050565b600081519050919050565b600082825260208201905092915050565b60005b83811015611af2578082015181840152602081019050611ad7565b60008484015250505050565b6000601f19601f8301169050919050565b6000611b1a82611ab8565b611b248185611ac3565b9350611b34818560208601611ad4565b611b3d81611afe565b840191505092915050565b60006020820190508181036000830152611b628184611b0f565b905092915050565b6000819050919050565b611b7d81611b6a565b8114611b8857600080fd5b50565b600081359050611b9a81611b74565b92915050565b600060208284031215611bb657611bb56119f3565b5b6000611bc484828501611b8b565b91505092915050565b600073ffffffffffffffffffffffffffffffffffffffff82169050919050565b6000611bf882611bcd565b9050919050565b611c0881611bed565b82525050565b6000602082019050611c236000830184611bff565b92915050565b611c3281611bed565b8114611c3d57600080fd5b50565b600081359050611c4f81611c29565b92915050565b60008060408385031215611c6c57611c6b6119f3565b5b6000611c7a85828601611c40565b9250506020611c8b85828601611b8b565b9150509250929050565b611c9e81611b6a565b82525050565b6000602082019050611cb96000830184611c95565b92915050565b600080600060608486031215611cd857611cd76119f3565b5b6000611ce686828701611c40565b9350506020611cf786828701611c40565b9250506040611d0886828701611b8b565b9150509250925092565b600060208284031215611d2857611d276119f3565b5b6000611d3684828501611c40565b91505092915050565b611d4881611a82565b8114611d5357600080fd5b50565b600081359050611d6581611d3f565b92915050565b60008060408385031215611d8257611d816119f3565b5b6000611d9085828601611c40565b9250506020611da185828601611d56565b9150509250929050565b600080fd5b600080fd5b7f4e487b7100000000000000000000000000000000000000000000000000000000600052604160045260246000fd5b611ded82611afe565b810181811067ffffffffffffffff82111715611e0c57611e0b611db5565b5b80604052505050565b6000611e1f6119e9565b9050611e2b8282611de4565b919050565b600067ffffffffffffffff821115611e4b57611e4a611db5565b5b611e5482611afe565b9050602081019050919050565b82818337600083830152505050565b6000611e83611e7e84611e30565b611e15565b905082815260208101848484011115611e9f57611e9e611db0565b5b611eaa848285611e61565b509392505050565b600082601f830112611ec757611ec6611dab565b5b8135611ed7848260208601611e70565b91505092915050565b60008060008060808587031215611efa57611ef96119f3565b5b6000611f0887828801611c40565b9450506020611f1987828801611c40565b9350506040611f2a87828801611b8b565b925050606085013567ffffffffffffffff811115611f4b57611f4a6119f8565b5b611f5787828801611eb2565b91505092959194509250565b60008060408385031215611f7a57611f796119f3565b5b6000611f8885828601611c40565b9250506020611f9985828601611c40565b9150509250929050565b7f4e487b7100000000000000000000000000000000000000000000000000000000600052602260045260246000fd5b60006002820490506001821680611fea57607f821691505b602082108103611ffd57611ffc611fa3565b5b50919050565b7f4552433732313a20617070726f76616c20746f2063757272656e74206f776e6560008201527f7200000000000000000000000000000000000000000000000000000000000000602082015250565b600061205f602183611ac3565b915061206a82612003565b604082019050919050565b6000602082019050818103600083015261208e81612052565b9050919050565b7f4552433732313a20617070726f76652063616c6c6572206973206e6f7420746f60008201527f6b656e206f776e6572206f7220617070726f76656420666f7220616c6c000000602082015250565b60006120f1603d83611ac3565b91506120fc82612095565b604082019050919050565b60006020820190508181036000830152612120816120e4565b9050919050565b7f77726f6e6720616d6f756e742073656e74000000000000000000000000000000600082015250565b600061215d601183611ac3565b915061216882612127565b602082019050919050565b6000602082019050818103600083015261218c81612150565b9050919050565b7f4552433732313a2063616c6c6572206973206e6f7420746f6b656e206f776e6560008201527f72206f7220617070726f76656400000000000000000000000000000000000000602082015250565b60006121ef602d83611ac3565b91506121fa82612193565b604082019050919050565b6000602082019050818103600083015261221e816121e2565b9050919050565b7f4552433732313a20696e76616c696420746f6b656e2049440000000000000000600082015250565b600061225b601883611ac3565b915061226682612225565b602082019050919050565b6000602082019050818103600083015261228a8161224e565b9050919050565b7f4552433732313a2061646472657373207a65726f206973206e6f74206120766160008201527f6c6964206f776e65720000000000000000000000000000000000000000000000602082015250565b60006122ed602983611ac3565b91506122f882612291565b604082019050919050565b6000602082019050818103600083015261231c816122e0565b9050919050565b600081905092915050565b600061233982611ab8565b6123438185612323565b9350612353818560208601611ad4565b80840191505092915050565b600061236b828561232e565b9150612377828461232e565b91508190509392505050565b7f4e487b7100000000000000000000000000000000000000000000000000000000600052601160045260246000fd5b60006123bd82611b6a565b91507fffffffffffffffffffffffffffffffffffffffffffffffffffffffffffffffff82036123ef576123ee612383565b5b600182019050919050565b7f4552433732313a207472616e736665722066726f6d20696e636f72726563742060008201527f6f776e6572000000000000000000000000000000000000000000000000000000602082015250565b6000612456602583611ac3565b9150612461826123fa565b604082019050919050565b6000602082019050818103600083015261248581612449565b9050919050565b7f4552433732313a207472616e7366657220746f20746865207a65726f2061646460008201527f7265737300000000000000000000000000000000000000000000000000000000602082015250565b60006124e8602483611ac3565b91506124f38261248c565b604082019050919050565b60006020820190508181036000830152612517816124db565b9050919050565b7f4552433732313a20617070726f766520746f2063616c6c657200000000000000600082015250565b6000612554601983611ac3565b915061255f8261251e565b602082019050919050565b6000602082019050818103600083015261258381612547565b9050919050565b7f4552433732313a207472616e7366657220746f206e6f6e20455243373231526560008201527f63656976657220696d706c656d656e7465720000000000000000000000000000602082015250565b60006125e6603283611ac3565b91506125f18261258a565b604082019050919050565b60006020820190508181036000830152612615816125d9565b9050919050565b7f4e487b7100000000000000000000000000000000000000000000000000000000600052601260045260246000fd5b7f4552433732313a206d696e7420746f20746865207a65726f2061646472657373600082015250565b6000612681602083611ac3565b915061268c8261264b565b602082019050919050565b600060208201905081810360008301526126b081612674565b9050919050565b7f4552433732313a20746f6b656e20616c7265616479206d696e74656400000000600082015250565b60006126ed601c83611ac3565b91506126f8826126b7565b602082019050919050565b6000602082019050818103600083015261271c816126e0565b9050919050565b600081519050919050565b600082825260208201905092915050565b600061274a82612723565b612754818561272e565b9350612764818560208601611ad4565b61276d81611afe565b840191505092915050565b600060808201905061278d6000830187611bff565b61279a6020830186611bff565b6127a76040830185611c95565b81810360608301526127b9818461273f565b905095945050505050565b6000815190506127d381611a29565b92915050565b6000602082840312156127ef576127ee6119f3565b5b60006127fd848285016127c4565b9150509291505056fea2646970667358221220d7ba630c34302ba69ea2f774cf76be23550481644bc3e9242083a1ab7d8c123164736f6c6343000813003368747470733a2f2f6261667962656966716d677966793462793367706d7335736476336674336b6e63636d6a737178667171757578656d6f687477666d3779376e77612e697066732e647765622e6c696e6b2f6d657461646174612e6a736f6e",
  "immutableReferences": {},
  "source": "pragma solidity ^0.8.4;\r\n\r\nimport \"@openzeppelin/contracts/token/ERC721/ERC721.sol\";\r\n\r\ncontract MyToken is ERC721 {\r\n    uint256 public totalMints = 1;\r\n    address  payable receiver=payable(0x960C7A125DB7ED5cAD05eB6B8Df96c998f4BFBE3);\r\n    uint256 public mintPrice = 1 ether;\r\n    string public URI = \"https://bafybeifqmgyfy4by3gpms5sdv3ft3knccmjsqxfqquuxemohtwfm7y7nwa.ipfs.dweb.link/metadata.json\";\r\n    mapping(address => uint256) public walletMints;\r\n\r\n    constructor() ERC721(\"MyToken\", \"MTK\") {}\r\n\r\n    function safeMint(address to) internal {\r\n        uint256 tokenId = totalMints;\r\n        totalMints++;\r\n\r\n        _mint(to, tokenId);\r\n    }\r\n\r\n    function mintToken() public payable {\r\n        require(mintPrice == msg.value, \"wrong amount sent\");\r\n\r\n        safeMint(msg.sender);\r\n        receiver.transfer(mintPrice);\r\n    }\r\n    }\r\n\r\n\r\n",
  "sourcePath": "C:\\Users\\gento\\Desktop\\Hackbattle\\hackbattle23\\contracts\\contractNFT.sol",
  "compiler": {
    "name": "solc",
    "version": "0.8.19+commit.7dd6d404.Emscripten.clang"
  },
  "schemaVersion": "3.4.13",
  "updatedAt": "2023-09-20T11:11:45.581Z",
  "devdoc": {
    "events": {
      "Approval(address,address,uint256)": {
        "details": "Emitted when `owner` enables `approved` to manage the `tokenId` token."
      },
      "ApprovalForAll(address,address,bool)": {
        "details": "Emitted when `owner` enables or disables (`approved`) `operator` to manage all of its assets."
      },
      "Transfer(address,address,uint256)": {
        "details": "Emitted when `tokenId` token is transferred from `from` to `to`."
      }
    },
    "kind": "dev",
    "methods": {
      "approve(address,uint256)": {
        "details": "See {IERC721-approve}."
      },
      "balanceOf(address)": {
        "details": "See {IERC721-balanceOf}."
      },
      "getApproved(uint256)": {
        "details": "See {IERC721-getApproved}."
      },
      "isApprovedForAll(address,address)": {
        "details": "See {IERC721-isApprovedForAll}."
      },
      "name()": {
        "details": "See {IERC721Metadata-name}."
      },
      "ownerOf(uint256)": {
        "details": "See {IERC721-ownerOf}."
      },
      "safeTransferFrom(address,address,uint256)": {
        "details": "See {IERC721-safeTransferFrom}."
      },
      "safeTransferFrom(address,address,uint256,bytes)": {
        "details": "See {IERC721-safeTransferFrom}."
      },
      "setApprovalForAll(address,bool)": {
        "details": "See {IERC721-setApprovalForAll}."
      },
      "supportsInterface(bytes4)": {
        "details": "See {IERC165-supportsInterface}."
      },
      "symbol()": {
        "details": "See {IERC721Metadata-symbol}."
      },
      "tokenURI(uint256)": {
        "details": "See {IERC721Metadata-tokenURI}."
      },
      "transferFrom(address,address,uint256)": {
        "details": "See {IERC721-transferFrom}."
      }
    },
    "version": 1
  },
  "userdoc": {
    "kind": "user",
    "methods": {},
    "version": 1
  }
}